:020000040800F2
:100000000000022031130008650E00086D0E000884
:10001000750E00087D0E0008850E00080000000027
:100020000000000000000000000000008D0E00082D
:100030009B0E000800000000A90E0008B70E000883
:100040008113000881130008811300088113000840
:100050008113000881130008811300088113000830
:100060008113000881130008811300088113000820
:100070008113000881130008811300088113000810
:10008000811300088113000881130008C50E0008C1
:10009000D90E0008ED0E0008010F000881130008BA
:1000A00081130008811300088113000881130008E0
:1000B00081130008811300088113000881130008D0
:1000C00081130008811300088113000881130008C0
:1000D00081130008150F0008290F0008811300087C
:1000E00081130008811300088113000881130008A0
:1000F0008113000881130008811300088113000890
:10010000811300088113000881130008811300087F
:10011000811300088113000881130008811300086F
:10012000811300088113000881130008811300085F
:10013000811300083D0F0008510F0008650F0008EB
:10014000790F00088D0F0008A10F00088113000827
:10015000811300088113000881130008811300082F
:10016000811300088113000881130008811300081F
:1001700081130008811300088113000800000000AB
:0801800081130008811300083F
:1001900010B5054C237833B9044B13B10448AFF3C1
:1001A00000800123237010BD8C000020000000009F
:1001B0000C3B010808B5034B1BB103490348AFF3DF
:1001C000008008BD00000000900000200C3B0108EA
:1001D000034613F8012B002AFBD1181A0138704787
:1001E00001F0FF01102A2BDB10F0070F08D010F8E8
:1001F000013B013A8B422DD010F0070F42B3F6D1EC
:10020000F0B441EA012141EA014122F007047FF004
:1002100000070023F0E80256083C85EA010586EA5B
:10022000010685FA47F5A3FA87F586FA47F6A5FA97
:1002300087F68EB9EED1F0BC01F0FF0102F00702A3
:1002400032B110F8013B013A83EA010313B1F8D14E
:100250000020704701387047002D06BF354603382F
:10026000073815F0010F07D1013015F4807F02BF68
:10027000013015F4C03F0130F0BC0138704700BFB9
:1002800053B94AB9002908BF00281CBF4FF0FF31FD
:100290004FF0FF3000F06AB9ADF1080C6DE904CE03
:1002A00000F006F8DDF804E0DDE9022304B0704751
:1002B0002DE9F047089D0C46002B4ED194468C4505
:1002C0008646B2FA82F262D94AB1C2F12003914065
:1002D00020FA03F30CFA02FC194300FA02FE4FEA7B
:1002E0001C471FFA8CF6B1FBF7F44FEA1E4307FBDD
:1002F000141143EA014304FB06F199420AD91CEBAD
:10030000030304F1FF3080F01281994240F20F8123
:10031000023C6344591A1FFA8EF3B1FBF7F007FB56
:10032000101143EA014300FB06F69E420AD91CEB7A
:10033000030300F1FF3180F0FC809E4240F2F9801F
:10034000634402389B1B40EA044000211DB1D340A6
:100350000022C5E90032BDE8F0878B4205D90DB116
:10036000C5E9000100210846F5E7B3FA83F1002949
:1003700046D1A34202D39042C0F0F080861A64EBCB
:1003800003030120002DE6D0C5E90063E3E7002A5E
:1003900040F09080A1EB0C044FEA1C481FFA8CF748
:1003A0000121B4FBF8F64FEA1E4308FB164443EA6A
:1003B000044307FB06F0984208D91CEB030306F13F
:1003C000FF3402D2984200F2CD8026461C1A1FFA52
:1003D0008EF3B4FBF8F008FB104443EA044300FB3F
:1003E00007F79F4208D91CEB030300F1FF3402D248
:1003F0009F4200F2B0802046DB1B40EA0640A5E7A2
:10040000C1F120068B4022FA06F71F4320FA06FCB2
:1004100004FA01F343EA0C03F44000FA01F8380C43
:100420004FEA1349B4FBF0FE1FFA87FC00FB1E44A1
:1004300049EA04440EFB0CF9A14502FA01F20AD97B
:100440003C190EF1FF3A80F08480A14540F2818092
:10045000AEF1020E3C44A4EB09041FFA83F9B4FB8D
:10046000F0F300FB134449EA044403FB0CFCA445ED
:1004700007D93C1903F1FF3067D2A44565D9023B87
:100480003C4443EA0E40A0FB0293A4EB0C049C42C4
:10049000CE469C4651D34ED055B1B8EB0E0364EB1B
:1004A0000C0404FA06F6CB401E43CC40C5E90064B8
:1004B000002150E7C2F1200320FA03F10CFA02FCFC
:1004C00024FA03F394400C434FEA1C4800FA02FE5E
:1004D0001FFA8CF7B3FBF8F008FB1031230C43EA4A
:1004E000014300FB07F1994208D91CEB030300F11B
:1004F000FF362CD299422AD9023863445B1AA4B23F
:10050000B3FBF8F108FB113344EA034401FB07F3A2
:10051000A34208D91CEB040401F1FF3613D2A34215
:1005200011D902396444E41A41EA004139E704462A
:10053000F0E6084606E7C845AED2B9EB020E63EB1B
:10054000070C0138A8E73146EDE7034699E7304646
:10055000D4E7D6467FE7634402384DE70646234694
:1005600008460FE7023E634430E700BF704700BF14
:1005700080B500AF174B184A1A60164B06225A6016
:10058000144B00229A60134B0022DA60114B4FF497
:10059000A0221A610F4B4FF4C0025A610D4B00228A
:1005A0001A760C4B00225A760A4B00229A76094B97
:1005B0000022DA76074B00221A77064B00225A7780
:1005C000044801F0D5F80346002B01D000F02EFBC3
:1005D00000BF80BDA80000200064004080B500AFCF
:1005E000174B184A1A60164B06225A60144B002209
:1005F0009A60134B0022DA60114B4FF4A0221A616B
:100600000F4B4FF4C0025A610D4B00221A760C4B6F
:1006100000225A760A4B00229A76094B0022DA769B
:10062000074B00221A77064B00225A77044801F044
:100630009FF80346002B01D000F0F8FA00BF80BD00
:10064000D00000200068004080B58CB000AF78601A
:1006500007F11C0300221A605A609A60DA601A617E
:100660007B681B68624A934255D1624B1B68013319
:10067000604A13605F4B1B68012B0DD10023BB61E7
:100680005D4B1B6C5C4A43F0007313645A4B1B6C4C
:1006900003F00073BB61BB6900237B61564B1B6B8E
:1006A000554A43F008031363534B1B6B03F00803D5
:1006B0007B617B690323FB6102233B6200237B6236
:1006C0000323BB620923FB6207F11C0319464B4855
:1006D00002F038FF00220021132001F058FC132003
:1006E00001F071FC00220021142001F050FC1420C4
:1006F00001F069FC00220021152001F048FC1520C2
:1007000001F061FC00220021162001F040FC1620BF
:1007100001F059FC67E07B681B68394A934262D15B
:1007200000233B61344B1B6C334A43F080631364FA
:10073000314B1B6C03F080633B613B692D4B1B68A5
:1007400001332C4A13602B4B1B68012B0DD1002366
:10075000FB60294B1B6C284A43F000731364264B43
:100760001B6C03F00073FB60FB680023BB60224B33
:100770001B6B214A43F0020313631F4B1B6B03F0F7
:100780000203BB60BB686023FB6102233B62002362
:100790007B620323BB620923FB6207F11C0319463A
:1007A000184802F0CFFE002200213F2001F0EFFBAD
:1007B0003F2001F008FC00220021402001F0E7FB6F
:1007C000402001F000FC00220021412001F0DFFB6D
:1007D000412001F0F8FB00220021422001F0D7FB6C
:1007E000422001F0F0FB00BF3037BD4680BD00BFA6
:1007F00000640040F800002000380240000C024075
:10080000006800400004024080B500AF064B074A74
:100810001A60054801F0F1FB0346002B01D000F0FF
:1008200005FA00BF80BD00BFFC0000200030024080
:1008300080B485B000AF78607B681B680B4A934238
:100840000DD10023FB600A4B1B6B094A43F4805314
:100850001363074B1B6B03F48053FB60FB6800BF03
:100860001437BD465DF8047B704700BF003002407E
:100870000038024080B58CB000AF07F11C030022A5
:100880001A605A609A60DA601A610023BB61614B9A
:100890001B6B604A43F0100313635E4B1B6B03F04A
:1008A0001003BB61BB6900237B615A4B1B6B594A28
:1008B00043F004031363574B1B6B03F004037B618A
:1008C0007B6900233B61534B1B6B524A43F080030F
:1008D0001363504B1B6B03F080033B613B690023A8
:1008E000FB604C4B1B6B4B4A43F001031363494BBA
:1008F0001B6B03F00103FB60FB680023BB60454BEF
:100900001B6B444A43F002031363424B1B6B03F01F
:100910000203BB60BB6800237B603E4B1B6B3D4A00
:1009200043F0080313633B4B1B6B03F008037B602E
:100930007B6801224EF20811374802F09FFF002227
:100940008021354802F09AFF00228021334802F0CE
:1009500095FF41F67763FB6100233B6200237B62D6
:1009600007F11C0319462C4802F0ECFD4EF28813E7
:10097000FB6101233B6200237B620023BB6207F122
:100980001C031946244802F0DDFD42F2C103FB615D
:1009900000233B6200237B6207F11C0319462048B9
:1009A00002F0D0FD40F27913FB6100233B6200238B
:1009B0007B6207F11C0319461A4802F0C3FD872326
:1009C000FB6100233B6200237B6207F11C03194695
:1009D000154802F0B7FD4FF61873FB6100233B6228
:1009E00000237B6207F11C0319460C4802F0AAFDA4
:1009F0008023FB6101233B6200237B620023BB62F7
:100A000007F11C031946054802F09CFD00BF303772
:100A1000BD4680BD0038024000100240000C02407C
:100A200000080240000002400004024080B500AF10
:100A3000124B134A1A60114B124A5A600F4B002294
:100A40009A600E4B0022DA600C4B4FF480421A6120
:100A50000A4B00225A61094B00229A61074B00227F
:100A6000DA61064B00221A62044802F021FF0346B5
:100A7000002B01D000F0DAF800BF80BD0401002097
:100A800000540040A086010080B58AB000AF7860B5
:100A900007F1140300221A605A609A60DA601A6142
:100AA0007B681B68194A93422CD100233B61184B89
:100AB0001B6B174A43F002031363154B1B6B03F0C8
:100AC00002033B613B694FF440737B611223BB61BE
:100AD0000023FB6103233B6204237B6207F11403C1
:100AE00019460C4802F02EFD0023FB60084B1B6CDE
:100AF000074A43F400131364054B1B6C03F4001303
:100B0000FB60FB6800BF2837BD4680BD0054004035
:100B1000003802400004024080B500AF00F092FDB2
:100B200000F018F8FFF7A6FEFFF722FDFFF756FDCD
:100B300000F082F800F01AFB00F042FB04F0E4FD44
:100B4000FFF762FE00F0C8F8FFF770FF04F02EFE1A
:100B5000FCE7000080B594B000AF07F1200330221D
:100B60000021184612F02DF907F10C0300221A603B
:100B70005A609A60DA601A610023BB60294B1B6CD3
:100B8000284A43F080531364264B1B6C03F08053B8
:100B9000BB60BB6800237B60234B1B68224A43F485
:100BA00080431360204B1B6803F480437B607B68A9
:100BB00009233B624FF480337B6201237B63022372
:100BC000BB634FF48003FB6319233B644FF4A873AA
:100BD0007B640223BB640723FB6407F120031846F0
:100BE00002F0AAFF0346002B01D000F01FF80F23EC
:100BF000FB6002233B6100237B614FF4A053BB6188
:100C00004FF48053FB6107F10C030521184603F0F4
:100C10000BFA0346002B01D000F008F800BF503754
:100C2000BD4680BD003802400070004080B400AF77
:100C300072B600BF00BFFDE780B500AF0F4B104A92
:100C40001A600E4B00225A600C4B7F229A600B4BAD
:100C5000FF22DA60094B00221A61084B00225A6118
:100C6000064B00229A61054803F0A0FC0346002BC6
:100C700001D0FFF7DBFF00BF80BD00BF580100209F
:100C80000028004080B586B000AF786007F1080307
:100C900000221A605A609A60DA607B681B680C4A0E
:100CA000934211D10223BB604FF400737B6107F1C3
:100CB0000803184603F098FB0346002B01D0FFF70A
:100CC000B5FF044B01221A6000BF1837BD4680BD36
:100CD000002800403C0E474280B500AF174B184A31
:100CE0001A60164B4FF482725A60144B00229A60BD
:100CF000124B0022DA60114B00221A610F4B0022C6
:100D00005A610E4B4FF400729A610C4B0022DA616B
:100D10000A4B00221A62094B00225A62074B00223A
:100D20009A62064B0A22DA62044803F045FD034644
:100D3000002B01D0FFF77AFF00BF80BD78010020B3
:100D40000038004080B58AB000AF786007F1140326
:100D500000221A605A609A60DA601A617B681B6828
:100D6000284A93424AD100233B61274B1B6C264AF9
:100D700043F480431364244B1B6C03F480433B61B6
:100D80003B690023FB60204B1B6B1F4A43F00403AD
:100D900013631D4B1B6B03F00403FB60FB68002314
:100DA000BB60194B1B6B184A43F002031363164BCD
:100DB0001B6B03F00203BB60BB680C237B61022347
:100DC000BB610023FB6103233B6205237B6207F1C8
:100DD000140319460D4802F0B5FB4FF480637B61A4
:100DE0000223BB610023FB6103233B6205237B627B
:100DF00007F114031946064802F0A4FB00BF283788
:100E0000BD4680BD00380040003802400008024066
:100E10000004024080B483B000AF00237B60104B1D
:100E20005B6C0F4A43F4804353640D4B5B6C03F4DB
:100E300080437B607B6800233B60094B1B6C084A46
:100E400043F080531364064B1B6C03F080533B60EC
:100E50003B6800BF0C37BD465DF8047B704700BFA0
:100E60000038024080B400AF00BFFDE780B400AF9F
:100E700000BFFDE780B400AF00BFFDE780B400AF66
:100E800000BFFDE780B400AF00BFFDE780B400AF56
:100E900000BFBD465DF8047B704780B400AF00BF63
:100EA000BD465DF8047B704780B400AF00BFBD460F
:100EB0005DF8047B704780B500AF00F015FC00BF03
:100EC00080BD000080B500AF024800F04CFD00BFBF
:100ED00080BD00BFA800002080B500AF024800F030
:100EE00042FD00BF80BD00BFA800002080B500AF5C
:100EF000024800F038FD00BF80BD00BFA800002000
:100F000080B500AF024800F02EFD00BF80BD00BFDD
:100F1000A800002080B500AF024803F027FD00BF05
:100F200080BD00BFD401002080B500AF024803F0AF
:100F30001DFD00BF80BD00BF1C02002080B500AFBA
:100F4000024801F017FC00BF80BD00BF804D0020AB
:100F500080B500AF024801F00DFC00BF80BD00BFAE
:100F6000804D002080B500AF024800F0FCFC00BFBF
:100F700080BD00BFD000002080B500AF024800F067
:100F8000F2FC00BF80BD00BFD000002080B500AFE4
:100F9000024800F0E8FC00BF80BD00BFD000002088
:100FA00080B500AF024800F0DEFC00BF80BD00BF8E
:100FB000D000002080B400AF01231846BD465DF884
:100FC000047B704780B483B000AF78603960054B14
:100FD00016221A604FF0FF3318460C37BD465DF8F5
:100FE000047B7047888B002080B582B000AF7860AA
:100FF0004FF0FF317868FFF7E5FF00BFFDE780B5F0
:1010000086B000AFF860B9607A6000237B610AE0C7
:10101000AFF300800146BB685A1CBA60CAB21A70AE
:101020007B6901337B617A697B689A42F0DB7B687C
:1010300018461837BD4680BD80B586B000AFF86051
:10104000B9607A6000237B6109E0BB685A1CBA6012
:101050001B781846AFF300807B6901337B617A69A6
:101060007B689A42F1DB7B6818461837BD4680BD25
:1010700080B483B000AF78604FF0FF3318460C3770
:10108000BD465DF8047B704780B483B000AF7860E4
:1010900039603B684FF400525A60002318460C3701
:1010A000BD465DF8047B704780B483B000AF7860C4
:1010B000012318460C37BD465DF8047B704780B4A9
:1010C00085B000AFF860B9607A6000231846143725
:1010D000BD465DF8047B704780B487B000AF786090
:1010E000144A154BD31A7B617B693B61134B1B6818
:1010F000002B02D1114B124A1A60104B1A687B6800
:1011000013443A699A4205D20E4B0C221A604FF0F2
:10111000FF3309E0094B1B68FB60084B1A687B68CA
:101120001344064A1360FB6818461C37BD465DF839
:10113000047B70470000022000040000D001002062
:10114000988B0020888B002080B400AF064BD3F82A
:101150008830054A43F47003C2F8883000BFBD46AA
:101160005DF8047B704700BF00ED00E080B500AF84
:10117000114B124A1A60104B4FF4E1325A600E4B79
:1011800000229A600C4B0022DA600B4B00221A619D
:10119000094B0C225A61084B00229A61064B00222F
:1011A000DA61054803F091FB0346002B01D0FFF7FD
:1011B0003DFD00BF80BD00BFD401002000100140F4
:1011C00080B500AF114B124A1A60104B4FF4165203
:1011D0005A600E4B00229A600C4B0022DA600B4BD7
:1011E0004FF4C0621A61094B0C225A61074B00226E
:1011F0009A61064B0022DA61044803F066FB03465D
:10120000002B01D0FFF712FD00BF80BD1C020020A3
:101210000044004080B58CB000AF786007F11C033B
:1012200000221A605A609A60DA601A617B681B6853
:101230003A4A934235D10023BB61394B5B6C384A43
:1012400043F010035364364B5B6C03F01003BB6137
:10125000BB6900237B61324B1B6B314A43F00103B6
:1012600013632F4B1B6B03F001037B617B694FF40E
:10127000C063FB6102233B6200237B620323BB62EA
:101280000723FB6207F11C031946264802F05AF9AE
:1012900000220021252000F07AFE252000F093FE98
:1012A00038E07B681B68204A934233D100233B61BE
:1012B0001B4B1B6C1A4A43F400331364184B1B6C12
:1012C00003F400333B613B690023FB60144B1B6B51
:1012D000134A43F008031363114B1B6B03F008031D
:1012E000FB60FB686023FB6102233B6200237B629F
:1012F0000323BB620723FB6207F11C0319460B485B
:1013000002F020F900220021262000F040FE2620D5
:1013100000F059FE00BF3037BD4680BD00100140CF
:10132000003802400000024000440040000C02402F
:10133000DFF834D0FFF708FF0C480D490D4A0023B1
:1013400002E0D458C4500433C4188C42F9D30A4A7A
:101350000A4C002301E013600432A242FBD311F0D7
:101360007FFDFFF7D9FB704700000220000000203E
:101370008C000020706B01088C000020988B0020EE
:10138000FEE780B483B000AF786039607B68002BE3
:101390000BD03B68DB68002B07D03B689B68002BB9
:1013A00003D03B681B69002B02D14FF0FF3314E0E0
:1013B0003B681A687B689A603B685A687B68DA60A9
:1013C0003B68DA687B685A613B689A687B681A6197
:1013D0003B681A697B689A61002318460C37BD4642
:1013E0005DF8047B704780B586B000AF786000235D
:1013F000FB600023BB6000237B6100233B617B68B3
:101400005B68002B7CD17B689B68002B02D07B68DB
:101410009B6898477B6820221A6000237B611CE050
:101420007B685B6907F108021921786998470346D0
:10143000002B03DA6FF004033B610BE0BB6803F0A1
:101440001F037A699A4205D17B687A691A60002382
:101450003B6105E07B6901337B617B691F2BDFD931
:101460007B681B681F2B02D96FF002033B613B694D
:10147000002B45D17B681B697A6810684FF40042E5
:10148000002198470346002B37DB7B685B697A684D
:10149000106807F10802002198470346002B28DB5B
:1014A0007B689B6998470346FB601CE07B689B69EF
:1014B000984703461A46FB68D31AB3F5FA7F0ED84D
:1014C0007B685B697A68106807F108020021984719
:1014D0000346002B07DA6FF004033B6110E06FF066
:1014E00001033B610CE0BB6803F40043002BDDD13A
:1014F00006E06FF004033B6102E06FF003033B6121
:101500003B69002B12D17B689B6998470346FB60BF
:1015100000BF7B689B69984703461A46FB68D31A4D
:10152000B3F5FA6FF5D97B6801225A603B6918461A
:101530001837BD4680BD80B584B000AF7860002309
:10154000FB607B685B697A68106807F10C02012117
:1015500098470346002B02DA6FF004036EE07B68C5
:101560005B697A68106807F10C020121984703460D
:10157000002B02DA6FF0040360E0FB6803F0040361
:10158000002B01D1012359E07B685B697A68106800
:1015900007F10C02002198470346002B02DA6FF096
:1015A00004034BE0FB6803F48053002B1BD1FB6862
:1015B00003F40053002B06D0FB6803F48073002B68
:1015C00001D002233AE0FB6803F40053002B01D062
:1015D000032333E0FB6803F48073002B01D0042362
:1015E0002CE005232AE07B685B697A68106807F1C4
:1015F0000C02102198470346002B02DA6FF0040317
:101600001CE0FB6803F01003002B01D1062315E05A
:10161000FB6803F00603042B01D102230EE0FB68F4
:1016200003F00603002B01D1032307E0FB6803F05E
:101630000603062B01D1042300E0052318461037CA
:10164000BD4680BD80B500AF0E4B1B680D4A43F40C
:10165000007313600B4B1B680A4A43F480631360EA
:10166000084B1B68074A43F480731360032000F0A3
:1016700083FC0F2000F008F8FFF7CCFB002318468E
:1016800080BD00BF003C024080B582B000AF7860F2
:10169000124B1A68124B1B7819464FF47A73B3FB3E
:1016A000F1F3B2FBF3F3184600F09BFC0346002B6A
:1016B00001D001230EE07B680F2B0AD80022796845
:1016C0004FF0FF3000F063FC064A7B681360002394
:1016D00000E0012318460837BD4680BD0000002009
:1016E000080000200400002080B400AF064B1B78E7
:1016F0001A46064B1B681344044A136000BFBD46DC
:101700005DF8047B704700BF0800002064020020E1
:1017100080B400AF034B1B681846BD465DF8047BE0
:10172000704700BF6402002080B584B000AF7860CD
:10173000FFF7EEFFB8607B68FB60FB68B3F1FF3F2B
:1017400005D00A4B1B781A46FB681344FB6000BFA8
:10175000FFF7DEFF0246BB68D31AFA689A42F7D851
:1017600000BF00BF1037BD4680BD00BF080000208D
:1017700080B584B000AF78607B68002B01D1012375
:10178000EDE07B6893F82030DBB2002B02D1786863
:10179000FEF75AFF7B681B681A687B681B6842F07B
:1017A00001021A60FFF7B4FFF86012E0FFF7B0FF24
:1017B0000246FB68D31A0A2B0BD97B685B6A43F499
:1017C00000327B685A627B68052283F8202001235F
:1017D000C5E07B681B685B6803F00103002BE5D064
:1017E0007B681B681A687B681B6822F002021A601B
:1017F000FFF78EFFF86012E0FFF78AFF0246FB68F2
:10180000D31A0A2B0BD97B685B6A43F400327B68DE
:101810005A627B68052283F8202001239FE07B68C1
:101820001B685B6803F00203002BE5D17B681B7E1D
:10183000012B08D17B681B681A687B681B6842F023
:1018400080021A6007E07B681B681A687B681B6867
:1018500022F080021A607B685B7E012B08D17B68D6
:101860001B681A687B681B6842F040021A6007E038
:101870007B681B681A687B681B6822F040021A604C
:101880007B689B7E012B08D17B681B681A687B688C
:101890001B6842F020021A6007E07B681B681A6828
:1018A0007B681B6822F020021A607B68DB7E012BBC
:1018B00008D17B681B681A687B681B6822F01002DD
:1018C0001A6007E07B681B681A687B681B6842F037
:1018D00010021A607B681B7F012B08D17B681B6894
:1018E0001A687B681B6842F008021A6007E07B6890
:1018F0001B681A687B681B6822F008021A607B6804
:101900005B7F012B08D17B681B681A687B681B68AA
:1019100042F004021A6007E07B681B681A687B6863
:101920001B6822F004021A607B689A687B68DB6897
:101930001A437B681B691A437B685B6942EA0301AF
:101940007B685B685A1E7B681B680A43DA617B68A8
:1019500000225A627B68012283F820200023184667
:101960001037BD4680BD80B58AB000AF78600023D7
:101970007B627B681B685B693B627B681B685B689A
:10198000FB617B681B689B68BB617B681B68DB68CD
:101990007B617B681B681B693B617B681B689B697B
:1019A000FB603B6A03F00103002B7CD0BB6903F0B2
:1019B0000103002B23D07B681B6801229A60BB695E
:1019C00003F00203002B03D0786800F083F916E0DF
:1019D000BB6903F00403002B04D07B6A43F400636B
:1019E0007B620CE0BB6903F00803002B04D07B6A28
:1019F00043F480537B6202E0786800F089F9BB69A8
:101A000003F48073002B24D07B681B684FF4807232
:101A10009A60BB6903F40073002B03D0786800F070
:101A200063F916E0BB6903F48063002B04D07B6A82
:101A300043F400537B620CE0BB6903F40063002BAA
:101A400004D07B6A43F480437B6202E0786800F054
:101A500069F9BB6903F48033002B24D07B681B68D1
:101A60004FF480329A60BB6903F40033002B03D03B
:101A7000786800F043F916E0BB6903F48023002B7B
:101A800004D07B6A43F400437B620CE0BB6903F43F
:101A90000023002B04D07B6A43F480337B6202E096
:101AA000786800F049F93B6A03F00803002B0CD07A
:101AB0007B6903F01003002B07D07B6A43F40073AB
:101AC0007B627B681B681022DA603B6A03F00403C8
:101AD000002B0BD07B6903F00803002B06D07B683A
:101AE0001B680822DA60786800F03AF93B6A03F074
:101AF0000203002B09D07B681B68DB6803F003033B
:101B0000002B02D0786800F021F93B6A03F0400313
:101B1000002B0CD03B6903F01003002B07D07B6A2D
:101B200043F480637B627B681B6810221A613B6A06
:101B300003F02003002B0BD03B6903F00803002BBC
:101B400006D07B681B6808221A61786800F01CF9CF
:101B50003B6A03F01003002B09D07B681B681B69EC
:101B600003F00303002B02D0786800F003F93B6A0E
:101B700003F40033002B0BD0FB6903F01003002BA0
:101B800006D07B681B6810225A60786800F006F95E
:101B90003B6A03F48033002B0BD0FB6903F008038E
:101BA000002B06D07B681B6808225A60786800F01A
:101BB000FFF83B6A03F40043002B7BD0FB6903F082
:101BC0000403002B72D03B6A03F48073002B08D00F
:101BD000FB6803F00103002B03D07B6A43F0010391
:101BE0007B623B6A03F40073002B08D0FB6803F0B0
:101BF0000203002B03D07B6A43F002037B623B6A43
:101C000003F48063002B08D0FB6803F00403002B6F
:101C100003D07B6A43F004037B623B6A03F40063F6
:101C2000002B43D0FB6803F07003002B3ED0FB6811
:101C300003F07003602B2BD0602B2ED8502B22D0BA
:101C4000502B2AD8402B19D0402B26D8302B10D01F
:101C5000302B22D8102B02D0202B05D01DE07B6A20
:101C600043F008037B6219E07B6A43F010037B6258
:101C700014E07B6A43F020037B620FE07B6A43F051
:101C800040037B620AE07B6A43F080037B6205E0ED
:101C90007B6A43F480737B6200E000BF7B681B6853
:101CA0009A697B681B6822F070029A617B681B68E6
:101CB00004225A607B6A002B08D07B685A6A7B6AD0
:101CC0001A437B685A62786800F07CF800BF2837B6
:101CD000BD4680BD80B483B000AF786000BF0C37D4
:101CE000BD465DF8047B704780B483B000AF786078
:101CF00000BF0C37BD465DF8047B704780B483B0ED
:101D000000AF786000BF0C37BD465DF8047B7047BC
:101D100080B483B000AF786000BF0C37BD465DF87B
:101D2000047B704780B483B000AF786000BF0C378D
:101D3000BD465DF8047B704780B483B000AF786027
:101D400000BF0C37BD465DF8047B704780B483B09C
:101D500000AF786000BF0C37BD465DF8047B70476C
:101D600080B483B000AF786000BF0C37BD465DF82B
:101D7000047B704780B483B000AF786000BF0C373D
:101D8000BD465DF8047B704780B483B000AF7860D7
:101D900000BF0C37BD465DF8047B704780B483B04C
:101DA00000AF786000BF0C37BD465DF8047B70471C
:101DB00080B483B000AF786000BF0C37BD465DF8DB
:101DC000047B704780B483B000AF786000BF0C37ED
:101DD000BD465DF8047B704780B485B000AF786085
:101DE0007B6803F00703FB600C4BDB68BB60BA68E1
:101DF0004FF6FF031340BB60FB681A02BB68134336
:101E000043F0BF6343F40033BB60044ABB68D36054
:101E100000BF1437BD465DF8047B704700ED00E05D
:101E200080B400AF044BDB681B0A03F007031846BD
:101E3000BD465DF8047B704700ED00E080B483B0E0
:101E400000AF0346FB7197F90730002B0BDBFB79E2
:101E500003F01F02074997F907305B09012000FAD8
:101E600002F241F8232000BF0C37BD465DF8047B29
:101E7000704700BF00E100E080B483B000AF0346CC
:101E80003960FB7197F90730002B0ADB3B68DAB247
:101E90000C4997F907301201D2B20B4483F80023A2
:101EA0000AE03B68DAB20849FB7903F00F03043B10
:101EB0001201D2B20B441A7600BF0C37BD465DF852
:101EC000047B704700E100E000ED00E080B489B0E1
:101ED00000AFF860B9607A60FB6803F00703FB614C
:101EE000FB69C3F10703042B28BF0423BB61FB6913
:101EF0000433062B02D9FB69033B00E000237B611E
:101F00004FF0FF32BB6902FA03F3DA43BB681A40B1
:101F10007B699A404FF0FF317B6901FA03F3D943A3
:101F20007B680B40134318462437BD465DF8047B9D
:101F30007047000080B582B000AF78607B68013BDD
:101F4000B3F1807F01D301230FE00A4A7B68013B94
:101F500053600F214FF0FF30FFF78EFF054B00223B
:101F60009A60044B07221A60002318460837BD46C2
:101F700080BD00BF10E000E080B582B000AF7860A7
:101F80007868FFF729FF00BF0837BD4680BD80B5E0
:101F900086B000AF0346B9607A60FB7300237B61B3
:101FA000FFF73EFF78617A68B9687869FFF78EFFBE
:101FB000024697F90F3011461846FFF75DFF00BF44
:101FC0001837BD4680BD80B582B000AF0346FB71B7
:101FD00097F907301846FFF731FF00BF0837BD46B5
:101FE00080BD80B582B000AF78607868FFF7A2FF4F
:101FF000034618460837BD4680BD80B582B000AFA5
:1020000078607B68002B01D101230EE07B685B794F
:10201000DBB2002B05D17B6800221A717868FEF7CD
:1020200007FC7B6801225A71002318460837BD4619
:1020300080BD80B584B000AF78607B689B6DFB602D
:10204000FFF766FBB8607B6893F83530DBB2022B94
:1020500008D07B6880225A657B68002283F8342090
:10206000012352E07B681B681A687B681B6822F0BA
:1020700016021A607B681B685A697B681B6822F02D
:1020800080025A617B681B6C002B03D17B689B6CC0
:10209000002B07D07B681B681A687B681B6822F0DE
:1020A00008021A607B681B681A687B681B6822F04C
:1020B00001021A6013E0FFF72BFB0246BB68D31A3C
:1020C000052B0CD97B6820225A657B68032283F894
:1020D00035207B68002283F83420032315E07B68D9
:1020E0001B681B6803F00103002BE4D17B68DB6DE8
:1020F0003F229A40FB689A607B68012283F8352072
:102100007B68002283F83420002318461037BD4630
:1021100080BD80B483B000AF78607B6893F83530C1
:10212000DBB2022B04D07B6880225A6501230CE0CD
:102130007B68052283F835207B681B681A687B68FA
:102140001B6822F001021A60002318460C37BD46B6
:102150005DF8047B7047000080B584B000AF786004
:102160007B68002B01D101236CE07B68D3F88430BD
:10217000002B06D17B682322C3F88420786803F003
:10218000D1FC0023BB60314B5B6C304A43F480438D
:1021900053642E4B5B6C03F48043BB60BB682C4BD9
:1021A0005B682B4A23F400035360294B5A687B6811
:1021B0009B68274913434B60254B5B687B681B6812
:1021C00003F580531B687A68126843F0010302F537
:1021D00080521360FFF79CFAF86011E0FFF798FA5D
:1021E0000246FB68D31AB3F5FA7F09D97B6804224B
:1021F000C3F888207B68E022C3F88420012321E013
:102200007B681B6803F580531B6803F00103002BF8
:10221000E4D1786800F0F0FE786800F097FF786805
:1022200000F0EDFF7B685B681A460021786800F0DB
:1022300055FF7B680022C3F888207B681022C3F812
:102240008420002318461037BD4680BD0038024068
:102250000038014080B584B000AF78607B68D3F867
:102260008430102B50D17B682322C3F884207B68F4
:102270000422DA66786800F0FDF97B681B681A684A
:102280007B681B6842F008021A607B681B681B6849
:10229000FB600120FFF748FA7B681B68FA681A6048
:1022A0007B681B681A687B681B6842F004021A602E
:1022B0007B681B681B68FB600120FFF735FA7B68B1
:1022C0001B68FA681A60786800F036FD7B681B6846
:1022D00003F580539B697A68126843F4005302F552
:1022E000805293617B681B6803F580539B697A6811
:1022F000126843F0020302F5805293617B68232247
:10230000C3F88420002300E0012318461037BD469F
:1023100080BD80B584B000AF78607B68D3F884302E
:10232000232B4AD17B682322C3F884207B681B6857
:1023300003F580539B697A68126823F4005302F511
:10234000805293617B681B6803F580539B697A68B0
:10235000126823F0020302F5805293617B681B68C8
:102360001A687B681B6822F004021A607B681B688D
:102370001B68FB600120FFF7D7F97B681B68FA68D0
:102380001A60786800F0D8FC7B681B681A687B6864
:102390001B6822F008021A607B681B681B68FB60E0
:1023A0000120FFF7C1F97B681B68FA681A607B6837
:1023B0001022C3F88420002300E0012318461037C0
:1023C000BD4680BD80B586B000AFF860B9607A6068
:1023D000BB68002B09D1FB68D3F8883043F00102B9
:1023E000FB68C3F8882001237CE0FB68D3F88430C5
:1023F000232B76D10022B968F86800F06DFF034600
:10240000002B09D0FB68D3F8883043F00202FB6848
:10241000C3F88820012365E0BFF34F8F00BFFB683E
:102420009A6AFB68063253F822307B61FB689B6A2C
:102430005A1CFB689A62FB689B6A032B04D9FB68F1
:102440009B6A1A1FFB689A62FB68996AFB681A68A4
:10245000FB68063153F8213002F580525360FFF7D4
:1024600057F9386137E0FB681B6803F580535B69F7
:1024700003F40053002B11D0FB68D3F8883043F0ED
:102480000802FB68C3F88820FB681B6803F58053CB
:102490005A69FB68C3F88C20012323E07B68B3F101
:1024A000FF3F18D0FFF734F902463B69D31A7A6828
:1024B0009A4202D37B68002B0DD1FB68D3F8883099
:1024C00043F00402FB68C3F888207B694FF0405258
:1024D0001A60012306E07B691B68002BC3DB002325
:1024E00000E0012318461837BD4680BD80B588B08E
:1024F00000AF7860396000237B610023FB733B6889
:10250000002B09D17B68D3F8883043F001027B6847
:10251000C3F888200123A8E07B68D3F88430232BFC
:1025200001D00123A1E07B68DB6DFB617B68FA6968
:10253000123253F82230BB617B68DB6EC3F10403B7
:10254000BB606AE0BB691B6803F48073002B07D093
:10255000BB69DA697B689A67BB699A697B685A6765
:10256000BB691B6803F40073002B03D17B68DB6F2E
:10257000002B40D0BB691B6803F40073002B05D00F
:102580007B6800221A667B6800225A667B685B695A
:102590003B61BB691B6803F48073002B0CD0BB69E3
:1025A0001B681B0CC3F30D03043B3B61BB691A683A
:1025B0007B681A670123FB73BB699A68BB691A625F
:1025C0007B6803F17C007B6803F18001BB691B6AB7
:1025D0001A463B699BB203F065FC7B681B6E5A1C74
:1025E0007B681A667B685A6E3B691A447B685A6638
:1025F000BB6900221A62FB690133FB61FB69032B93
:1026000002D9FB69043BFB617B68FA69123253F81B
:102610002230BB617B6901337B61BB691B68002B86
:1026200006DB7A69BB689A4202D2FB7B002B89D019
:102630007B68DA6E7B691A447B68DA667B68DB6EDE
:10264000002B02D0786800F015F87B68FA69DA652B
:10265000FB7B012B08D17B68DA6F3B681A607B68D3
:102660000022DA67002300E0012318462037BD4628
:1026700080BD000080B588B000AF78600023BB60EB
:102680000123FB747B689B6EFB617B68FA691232E5
:1026900053F822307B617B68DB6EBB613DE07B6978
:1026A0001B6A002B12D107F10803184603F0CAFB7E
:1026B000BB68002B02D10023FB7407E0BB681A46FD
:1026C0007B691A62BB681A467B699A60FB7C002BA7
:1026D00023D07B689B6D002B03D17B69244A5A6011
:1026E00003E07B694FF48C425A607B691B6843F0BE
:1026F00000427B691A60FB690133FB61FB69032BB4
:1027000002D9FB69043BFB617B68FA69123253F81A
:1027100022307B61BB69013BBB61BB69002B02D0EE
:10272000FB7C002BBBD17B68DB6EBA699A421AD066
:10273000FB69013303F00303FB60BFF35F8F00BF4E
:102740007B681969FA6813469B001344DB00CA18BA
:102750007B681B6803F580539A607B68FA699A6608
:102760007B68BA69DA6600BF2037BD4680BD00BF0E
:102770000046008080B582B000AF78607B681B683F
:1027800003F580535B6903F04003402B12D17B6853
:102790001B6803F58053DB6903F04003402B09D12C
:1027A0007B681B6803F580531A46504B5361786869
:1027B00000F0ACF87B681B6803F580535B6903F09D
:1027C0000103012B13D17B681B6803F58053DB6980
:1027D00003F00103012B0AD17B681B6803F58053CA
:1027E0001A464FF001135361786800F085F87B6852
:1027F0001B6803F580535B6903F40043B3F5004F96
:102800004CD17B681B6803F58053DB6903F40043FC
:10281000B3F5004F42D17B68D3F8883043F008020B
:102820007B68C3F888207B681B6803F580535B696D
:1028300003F40053B3F5005F1AD17B681B6803F5FE
:1028400080535A692A4B13407A68C2F88C307B68EF
:102850001B6803F58053DB697A68126823F4C03380
:1028600002F58052D3617B68E022C3F8842012E035
:102870007B681B6803F580535A6948F280631340F4
:102880007A68C2F88C307B681B6803F580531A465F
:1028900048F280635361786800F042F87B681B68F7
:1028A0009B6B03F00803082B0ED17B681B68DB6A67
:1028B00003F060027B68C3F89420786800F03AF86F
:1028C0007B680022C3F894200A4B5B6903F4002361
:1028D000002B06D0074B4FF400225A61786800F0B5
:1028E00033F800BF0837BD4680BD00BF400001007F
:1028F00000207E00003C014080B483B000AF7860CF
:1029000000BF0C37BD465DF8047B704780B483B0D0
:1029100000AF786000BF0C37BD465DF8047B7047A0
:1029200080B483B000AF786000BF0C37BD465DF85F
:10293000047B704780B483B000AF786000BF0C3771
:10294000BD465DF8047B704780B483B000AF78600B
:1029500000BF0C37BD465DF8047B704780B586B07C
:1029600000AFF860B9607A603B60FB681B681B6968
:102970007B617B6903F01C037B61BB68DB029BB25C
:102980007A6913437B617B689B0103F4F8637A697E
:1029900013437B617B6923F002037B617B6943F016
:1029A00001037B61FB681B687A691A61FEF7B0FE60
:1029B00038610DE0FEF7ACFE02463B69D31AB3F571
:1029C000803F01D3012310E0FB681B681B697B611A
:1029D0007B6903F00103002BECD1FB681B685B698A
:1029E0009BB21A463B681A60002318461837BD464A
:1029F00080BD80B586B000AFF860B9607A603B609A
:102A0000FB681B681B697B617B6903F01C037B61AE
:102A1000BB68DB029BB27A6913437B617B689B01D5
:102A200003F4F8637A6913437B617B6943F0020323
:102A30007B617B6943F001037B613B689AB2FB6871
:102A40001B685A61FB681B687A691A61FEF760FEB1
:102A500038610DE0FEF75CFE02463B69D31AB3F520
:102A6000803F01D3012309E0FB681B681B697B6180
:102A70007B6903F00103002BECD1002318461837C3
:102A8000BD4680BD80B483B000AF786039603B68DC
:102A9000002B01D10123D9E07B681B681B6803F080
:102AA0001003002B14BF01230023DBB21A463B683E
:102AB00083F828207B681B681B6803F060023B6872
:102AC0005A627B681B681B6803F40073002B0CBF01
:102AD00001230023DBB21A463B6883F820207B6881
:102AE0001B681B6803F48033002B14BF01230023F1
:102AF000DBB21A463B68DA777B681B681B6803F415
:102B00000053002B0CBF01230023DBB21A463B68A5
:102B10009A777B681B681B6803F48053002B14BFF3
:102B200001230023DBB21A463B681A777B681B68D7
:102B30001B6803F400623B689A617B681B681B6832
:102B400003F480423B685A617B681B681B6803F48E
:102B50008003002B0CBF01230023DBB21A463B6825
:102B60005A747B681B681B6803F40003002B0CBFBE
:102B700001230023DBB21A463B681A747B681B688A
:102B80001B6803F08003002B14BF01230023DBB27A
:102B90001A463B68DA737B681B681B6803F4602283
:102BA0003B689A607B681B681B6803F48063002B9A
:102BB00014BF01230023DBB21A463B681A717B68FD
:102BC0001B689B6903F00203002B14BF0123002341
:102BD000DBB21A463B6883F854207B681B689B690C
:102BE00003F08003002B0CBF01230023DBB21A4645
:102BF0003B6883F84C207B681B689B6903F03002BC
:102C00003B681A657B681B689B691B0C9AB23B6822
:102C10009A647B681B689B6903F00403002B14BF54
:102C200001230023DBB21A463B6883F856207B68F9
:102C30001B689B6903F00803002B14BF01230023CA
:102C4000DBB21A463B6883F85520002318460C3740
:102C5000BD465DF8047B704780B582B000AF7860F8
:102C600039603B68002B01D101230BE07B68D3F86E
:102C70008430102B05D13968786800F083F8002380
:102C800000E0012318460837BD4680BD80B584B0FA
:102C900000AF78607B681B681B69FB60FB6823F0F2
:102CA0001C03FB6001F06CFBB860BB681D4A9342DB
:102CB00008D9BB681C4A934204D8FB6843F0080358
:102CC000FB6027E0BB68184A934208D9BB68174AE3
:102CD000934204D2FB6843F00C03FB601AE0BB682C
:102CE000124A934203D3BB68114A934211D9BB687D
:102CF0000F4A934208D9BB680E4A934204D8FB6836
:102D000043F00403FB6005E0FB6843F01003FB6045
:102D100000E000BF7B681B68FA681A6100BF1037CB
:102D2000BD4680BDFF2C3101BF0E16020087930304
:102D3000FFE0F5057FD1F00880B584B000AF786082
:102D40000023FB607B681B6803F580539B697A68EE
:102D5000126843F4801302F5805293617B681B680C
:102D600003F580539B69FB600120FEF7DDFC7B6867
:102D70001A68FB6802F58052936100BF1037BD46A8
:102D800080BD000080B584B000AF786039607B689A
:102D90001B681B68FB60FA68514B1340FB603B6883
:102DA0001B7C002B02D14FF4000200E000223B68A4
:102DB0005B7C002B02D14FF4800300E000231A4318
:102DC0003B689B681A433B68DB7F1B041A433B68E4
:102DD0005B6913433A68927F002A02D14FF4005294
:102DE00000E000221A433B681B7F1B031A433B6829
:102DF0009B691A433B681B799B0213433A6892F81C
:102E00002020002A02D14FF4007200E000221A4371
:102E10003B68DB7BDB011A433B685B6A1A433B6818
:102E200093F828301B011343FA681343FB607B6857
:102E30001B68FA681A607B681B681B68FB600120CE
:102E4000FEF772FC7B681B68FA681A607B681B6877
:102E50009B69FB60FA684FF641731340FB603B6867
:102E60009B6C1B043A6892F84C20002A01D1802206
:102E700000E000221A433B681B6D13433A6892F846
:102E80005520012A01D1082200E0002213433A68AC
:102E900092F85620012A01D1042200E000221343B7
:102EA0003A6892F85420012A01D1022200E000225F
:102EB0001343FA681343FB607B681B68FA689A61E6
:102EC0007B681B689B69FB600120FEF72DFC7B681B
:102ED0001B68FA689A6100BF1037BD4680BD00BF0D
:102EE0000F8120FF80B584B000AF786039607B68C7
:102EF0001B6803F580539B69FB60FA683D4B1340E8
:102F0000FB603B681B7B002B02D14FF0806200E02E
:102F100000223B685B7B5B0613433A68527F002AC2
:102F200002D14FF4801200E000221A433B689B7BE1
:102F30005B051A433B685B691A433B681B7FDB01F7
:102F40001A433B689B7F9B011A433B681B6A1A43E9
:102F50003B6893F824309B001343FA681343FB60EB
:102F60007B681B6803F580531A46FB6893617B6896
:102F70001B6803F580539B69FB600120FEF7D4FBBF
:102F80007B681B6803F580531A46FB6893613B68B6
:102F90001B795A063B689B681A433B689B691A4336
:102FA0003B681B691A433B6893F82530DB011A43E1
:102FB0003B689B6A9B001A433B681B6813437A6813
:102FC000126843F4000302F5805213607B681B68AB
:102FD00003F580531B68FB600120FEF7A5FB7B68AF
:102FE0001B6803F580531A46FB68136000BF103757
:102FF000BD4680BD233FDEF880B5A6B000AF786047
:10300000012387F84430012387F845300023FB6310
:10301000002387F85330012387F85230002387F8C4
:103020005030012387F83830002387F854300023CC
:1030300087F843300023BB65002387F85C3000230A
:10304000FB67002387F880300023C7F88430002313
:1030500087F88A30002387F888304FF48043BB64B8
:103060004FF40063FB64002387F8893007F13403D1
:1030700019467868FFF786FE01233B7501237B75AF
:10308000012387F825300123BB750023FB61002352
:1030900087F82430002387F826300023BB62012301
:1030A00087F82C3001233B734FF480333B614FF49E
:1030B00080033B624FF40053BB61012387F82D303E
:1030C00000233B630023BB6007F1080319467868BF
:1030D000FFF708FF00BF9837BD4680BD80B487B0BA
:1030E00000AFF860B9607A607B6805331B781B021B
:1030F0007A680432127813437B61BA68114B134427
:103100001A467B6913607B6803331B781A067B6859
:1031100002331B781B041A437B6801331B781B02A4
:1031200013437A68127813437B61BA68064B1344E1
:103130001A467B69136000BF1C37BD465DF8047BEF
:10314000704700BF408002404480024080B485B098
:1031500000AF78600023FB603EE07B68D968FA68C6
:1031600013469B001344DB000B44BB60BB6800228A
:103170001A60BB6800225A60BB6800229A60BB6874
:103180000022DA60B9687B68FA68063243F82210D8
:10319000BB681B6843F48012BB681A60FB68022B93
:1031A0000CD87B68D968FB685A1C13469B001344F3
:1031B000DB000B441A46BB68DA6004E07B68DB681E
:1031C0001A46BB68DA60BB681B6843F44002BB6800
:1031D0001A60FB680133FB60FB68032BBDD97B6879
:1031E00000229A627B68DA687B681B6803F580536B
:1031F0001A6100BF1437BD465DF8047B704780B488
:1032000085B000AF78600023FB6046E07B681969F9
:10321000FA6813469B001344DB000B44BB60BB6899
:1032200000221A60BB6800225A60BB6800229A60C4
:10323000BB680022DA60BB6800221A62BB68002209
:103240005A62BB684FF000421A60BB684FF48C4270
:103250005A60BB685B6823F00042BB685A60B9687B
:103260007B68FA68123243F82210FB68022B0CD8F4
:103270007B681969FB685A1C13469B001344DB00EA
:103280000B441A46BB68DA6004E07B681B691A4687
:10329000BB68DA60FB680133FB60FB68032BB5D9C0
:1032A0007B680022DA657B6800221A667B68002250
:1032B0009A667B680022DA667B6800229A657B68E2
:1032C0001A697B681B6803F58053DA6000BF143706
:1032D000BD465DF8047B704780B48DB000AFF860E8
:1032E000B9607A60FB6818337B617B691B69FB629C
:1032F0007B691B693B6100237B627B69FA6A53F837
:1033000022303B62BB689B68FB610023BB613B6A68
:103310001B6803F00043B3F1004F07D07A69FB6AE2
:1033200004339B0013445B68002B01D0022303E1AC
:103330007B6A01337B62FB691B681A463B6A9A60B1
:103340003B6A5B6823F4FF5323F01F03FA6952685A
:103350001A433B6A5A60BB681B6803F00103002BE9
:1033600008D03B6A1B6823F44002BB685B691A43C0
:103370003B6A1A60BB681B6803F02003002B08D06F
:103380003B6A1B6823F04062BB681B691A433B6AB7
:103390001A60BB681B6803F00403002B05D03B6A6E
:1033A0001B6843F080023B6A1A603B6A1B6843F06B
:1033B00080523B6A1A60BFF35F8F00BF3B6A1B6895
:1033C00043F000423B6A1A6084E03B6A1B6823F0CA
:1033D00000523B6A1A607B68002B06D03B6A1B6870
:1033E00043F080423B6A1A6005E03B6A1B6823F0A9
:1033F00080423B6A1A60FB6A0133FB62FB6A032B63
:1034000002D9FB6A043BFB627B69FA6A53F82230FB
:103410003B623B6A1B6823F080523B6A1A603B6A3E
:103420001B6803F00043B3F1004F07D07A69FB6AD1
:1034300004339B0013445B68002B29D03B69FB627B
:103440007B69FA6A53F822303B620023BB6219E0C1
:10345000BFF35F8F00BF3B6A1B6823F000423B6AEB
:103460001A60FB6A0133FB62FB6A032B02D9FB6A19
:10347000043BFB627B69FA6A53F822303B62BB6A09
:103480000133BB62BA6A7B6A9A42E1D3022353E0FA
:103490007B6A01337B62FB699B68FB61FB691B688C
:1034A0001A463B6A9A603B6A5B6823F4FF5323F039
:1034B0001F03FA6952681A433B6A5A60BB690133B9
:1034C000BB61BFF35F8F00BF3B6A1B6843F00042E4
:1034D0003B6A1A60FB699B68002B7FF476AF7B68C0
:1034E000002B06D03B6A1B6843F080423B6A1A609F
:1034F00005E03B6A1B6823F080423B6A1A603B6A26
:103500001B6843F000523B6A1A607B695A6A79690A
:10351000FB6A04339B000B445A607B69FA6A1A61A8
:1035200072B600BF7B699A6ABB6913445A1C7B69F7
:103530009A6262B600BF002318463437BD465DF874
:10354000047B704780B489B000AF78603960002395
:103550007B6100233B610023BB610023FB616BE1C6
:103560000122FB6902FA03F37B613B681B687A69FD
:1035700013403B613A697B699A4240F05A813B684B
:103580005B6803F00303012B05D03B685B6803F025
:103590000303022B30D17B689B68BB61FB695B0036
:1035A000032202FA03F3DB43BA691340BB613B68B1
:1035B000DA68FB695B0002FA03F3BA691343BB6183
:1035C0007B68BA699A607B685B68BB610122FB69B2
:1035D00002FA03F3DB43BA691340BB613B685B68E3
:1035E0001B0903F00102FB6902FA03F3BA691343F2
:1035F000BB617B68BA695A603B685B6803F0030390
:10360000032B17D07B68DB68BB61FB695B0003227F
:1036100002FA03F3DB43BA691340BB613B689A6863
:10362000FB695B0002FA03F3BA691343BB617B6871
:10363000BA69DA603B685B6803F00303022B23D1AD
:10364000FB69DA087B68083253F82230BB61FB69FA
:1036500003F007039B000F2202FA03F3DB43BA696E
:103660001340BB613B681A69FB6903F007039B00C9
:1036700002FA03F3BA691343BB61FB69DA087B689A
:103680000832B96943F822107B681B68BB61FB698B
:103690005B00032202FA03F3DB43BA691340BB6108
:1036A0003B685B6803F00302FB695B0002FA03F30B
:1036B000BA691343BB617B68BA691A603B685B688F
:1036C00003F44033002B00F0B4800023FB60604B18
:1036D0005B6C5F4A43F4804353645D4B5B6C03F463
:1036E0008043FB60FB685B4AFB699B08023352F82E
:1036F0002330BB61FB6903F003039B000F2202FA36
:1037000003F3DB43BA691340BB617B68524A9342BF
:103710002BD07B68514A934225D07B68504A934214
:103720001FD07B684F4A934219D07B684E4A934220
:1037300013D07B684D4A93420DD07B684C4A93422C
:1037400007D07B684B4A934201D107230EE0082340
:103750000CE006230AE0052308E0042306E0032327
:1037600004E0022302E0012300E00023FA6902F0F2
:10377000030292009340BA691343BB613549FB6968
:103780009B080233BA6941F823203B4B9B68BB611D
:103790003B69DB43BA691340BB613B685B6803F478
:1037A0008013002B03D0BA693B691343BB61324AD3
:1037B000BB699360304BDB68BB613B69DB43BA6933
:1037C0001340BB613B685B6803F40013002B03D01C
:1037D000BA693B691343BB61274ABB69D360264B77
:1037E0005B68BB613B69DB43BA691340BB613B6803
:1037F0005B6803F40033002B03D0BA693B691343C1
:10380000BB611D4ABB6953601B4B1B68BB613B69B5
:10381000DB43BA691340BB613B685B6803F48033E8
:10382000002B03D0BA693B691343BB61124ABB69E1
:103830001360FB690133FB61FB690F2B7FF690AED0
:1038400000BF00BF2437BD465DF8047B704700BF52
:1038500000380240003801400000024000040240ED
:1038600000080240000C0240001002400014024018
:1038700000180240001C0240003C014080B483B0AC
:1038800000AF78600B467B8013467B707B78002B03
:1038900003D07A887B689A6103E07B881A047B688E
:1038A0009A6100BF0C37BD465DF8047B704700008D
:1038B00080B584B000AF78607B68002B01D1012314
:1038C0002BE17B6893F83D30DBB2002B06D17B689F
:1038D000002283F83C207868FDF7D6F87B68242224
:1038E00083F83D207B681B681A687B681B6822F0A0
:1038F00001021A607B681B681A687B681B6842F4C7
:1039000000421A607B681B681A687B681B6822F497
:1039100000421A6000F040FDF8607B685B68814AF5
:10392000934207D8FB68804A934294BF0123002347
:10393000DBB206E0FB687D4A934294BF012300237B
:10394000DBB2002B01D00123E7E0FB68784AA2FB41
:1039500003239B0CBB607B681B685B6823F03F0103
:103960007B681B68BA680A435A607B681B681B6ADD
:1039700023F03F017B685B686A4A934202D8BB68C8
:10398000013309E0BB684FF4967202FB03F3694A06
:10399000A2FB03239B0901337A6812680B4313626D
:1039A0007B681B68DB6923F44F4222F0FF027B68CF
:1039B0005B685C498B4219D8FB68591E7B685B6861
:1039C0005B00B1FBF3F3591C40F6FC730B40002B7A
:1039D0000AD0FB68591E7B685B685B00B1FBF3F3A0
:1039E0000133C3F30B0351E004234FE07B689B6872
:1039F000002B11D1FB68581E7B6859680B465B0091
:103A00000B44B0FBF3F30133C3F30B03002B0CBFE8
:103A100001230023DBB212E0FB68581E7B68596863
:103A20000B469B000B4499000B44B0FBF3F30133AE
:103A3000C3F30B03002B0CBF01230023DBB2002BCD
:103A400001D0012322E07B689B68002B0ED1FB682C
:103A5000581E7B6859680B465B000B44B0FBF3F3C0
:103A60000133C3F30B0343F400430FE0FB68581E1C
:103A70007B6859680B469B000B4499000B44B0FBD4
:103A8000F3F30133C3F30B0343F44043796809684C
:103A90001343CB617B681B681B6823F0C0017B6804
:103AA000DA697B681B6A1A437B681B680A431A60E1
:103AB0007B681B689B6823F4034323F0FF037A6849
:103AC00011697A68D26811437A6812680B4393606F
:103AD0007B681B68DB6823F0FF017B685A697B68A1
:103AE0009B691A437B681B680A43DA607B681B6822
:103AF0001A687B681B6842F001021A607B6800222A
:103B00001A647B68202283F83D207B6800221A63B8
:103B10007B68002283F83E20002318461037BD46FC
:103B200080BD00BFA08601007F841E00FF083D000D
:103B300083DE1B43D34D621080B586B000AF786042
:103B40007B68002B01D1012367E27B681B6803F0CF
:103B50000103002B75D0884B9B6803F00C03042BEA
:103B60000CD0854B9B6803F00C03082B12D1824BC1
:103B70005B6803F48003B3F5800F0BD17E4B1B68A9
:103B800003F40033002B5BD07B685B68002B57D1BC
:103B9000012342E27B685B68B3F5803F06D1764B38
:103BA0001B68754A43F4803313601DE07B685B68D3
:103BB000B3F5A02F0CD1704B1B686F4A43F48023E0
:103BC00013606D4B1B686C4A43F4803313600BE049
:103BD000694B1B68684A23F480331360664B1B688B
:103BE000654A23F4802313607B685B68002B13D045
:103BF000FDF78EFD386108E0FDF78AFD02463B695E
:103C0000D31A642B01D9032307E25B4B1B6803F42F
:103C10000033002BF0D014E0FDF77AFD386108E0A6
:103C2000FDF776FD02463B69D31A642B01D90323C5
:103C3000F3E1514B1B6803F40033002BF0D100E09B
:103C400000BF7B681B6803F00203002B63D04A4B64
:103C50009B6803F00C03002B0BD0474B9B6803F0D1
:103C60000C03082B1CD1444B5B6803F48003002B2E
:103C700016D1414B1B6803F00203002B05D07B6873
:103C8000DB68012B01D00123C7E13B4B1B6823F00C
:103C9000F8027B681B69DB00374913430B603AE08D
:103CA0007B68DB68002B20D0344B01221A60FDF7C3
:103CB0002FFD386108E0FDF72BFD02463B69D31A62
:103CC000022B01D90323A8E12B4B1B6803F002034D
:103CD000002BF0D0284B1B6823F0F8027B681B698F
:103CE000DB00254913430B6015E0244B00221A60CA
:103CF000FDF70EFD386108E0FDF70AFD02463B695D
:103D0000D31A022B01D9032387E11B4B1B6803F055
:103D10000203002BF0D17B681B6803F00803002B23
:103D200036D07B685B69002B16D0154B01221A60D8
:103D3000FDF7EEFC386108E0FDF7EAFC02463B695E
:103D4000D31A022B01D9032367E10B4B5B6F03F0FE
:103D50000203002BF0D01BE0094B00221A60FDF794
:103D6000D7FC38610EE0FDF7D3FC02463B69D31A5D
:103D7000022B07D9032350E10038024000004742DC
:103D8000800E4742884B5B6F03F00203002BEAD1A1
:103D90007B681B6803F00403002B00F0978000236E
:103DA000FB75814B1B6C03F08053002B0FD100235C
:103DB000BB607D4B1B6C7C4A43F0805313647A4B91
:103DC0001B6C03F08053BB60BB680123FB75774B12
:103DD0001B6803F48073002B18D1744B1B68734A63
:103DE00043F480731360FDF793FC386108E0FDF73E
:103DF0008FFC02463B69D31A022B01D903230CE145
:103E00006A4B1B6803F48073002BF0D07B689B68BF
:103E1000012B06D1644B1B6F634A43F00103136708
:103E20001CE07B689B68052B0CD15F4B1B6F5E4AC7
:103E300043F0040313675C4B1B6F5B4A43F00103C1
:103E400013670BE0584B1B6F574A23F001031367AE
:103E5000554B1B6F544A23F0040313677B689B6820
:103E6000002B15D0FDF754FC38610AE0FDF750FC3B
:103E700002463B69D31A41F28832934201D90323A7
:103E8000CBE0494B1B6F03F00203002BEED014E094
:103E9000FDF73EFC38610AE0FDF73AFC02463B695B
:103EA000D31A41F28832934201D90323B5E03E4B45
:103EB0001B6F03F00203002BEED1FB7D012B05D11C
:103EC000394B1B6C384A23F0805313647B689B6921
:103ED000002B00F0A180344B9B6803F00C03082BEF
:103EE0005CD07B689B69022B41D1314B00221A6068
:103EF000FDF70EFC386108E0FDF70AFC02463B695D
:103F0000D31A022B01D9032387E0274B1B6803F048
:103F10000073002BF0D17B68DA697B681B6A1A4357
:103F20007B685B6A9B011A437B689B6A5B08013B69
:103F30001B041A437B68DB6A1B061B4913434B6057
:103F40001B4B01221A60FDF7E3FB386108E0FDF727
:103F5000DFFB02463B69D31A022B01D903235CE045
:103F6000114B1B6803F00073002BF0D054E0104B92
:103F700000221A60FDF7CCFB386108E0FDF7C8FBB2
:103F800002463B69D31A022B01D9032345E0064BB5
:103F90001B6803F00073002BF0D13DE07B689B6948
:103FA000012B07D1012338E00038024000700040A7
:103FB000600047421B4B5B68FB607B689B69012B81
:103FC00028D0FB6803F480027B68DB699A4221D128
:103FD000FB6803F03F027B681B6A9A421AD1FA68B9
:103FE00047F6C07313407A68526A9201934211D126
:103FF000FB6803F440327B689B6A5B08013B1B044F
:104000009A4207D1FB6803F070627B68DB6A1B068B
:104010009A4201D0012300E0002318461837BD461C
:1040200080BD00BF0038024080B584B000AF78602A
:1040300039607B68002B01D10123CCE0684B1B6801
:1040400003F007033A689A420CD9654B3A68D2B23A
:104050001A70634B1B6803F007033A689A4201D059
:104060000123B8E07B681B6803F00203002B20D01B
:104070007B681B6803F00403002B05D0594B9B6839
:10408000584A43F4E05393607B681B6803F00803CD
:10409000002B05D0534B9B68524A43F46043936016
:1040A000504B9B6823F0F0027B689B684D4913439B
:1040B0008B607B681B6803F00103002B44D07B6896
:1040C0005B68012B07D1474B1B6803F40033002BBF
:1040D00019D101237FE07B685B68022B03D07B68EA
:1040E0005B68032B07D13F4B1B6803F00073002B69
:1040F00009D101236FE03B4B1B6803F00203002B47
:1041000001D1012367E0374B9B6823F003027B68F2
:104110005B68344913438B60FDF7FAFAF8600AE0F4
:10412000FDF7F6FA0246FB68D31A41F28832934251
:1041300001D903234FE02B4B9B6803F00C027B68F3
:104140005B689B009A42EBD1254B1B6803F0070389
:104150003A689A420CD2224B3A68D2B21A70204B7B
:104160001B6803F007033A689A4201D0012332E04A
:104170007B681B6803F00403002B08D0194B9B6875
:1041800023F4E0527B68DB68164913438B607B683D
:104190001B6803F00803002B09D0124B9B6823F423
:1041A00060427B681B69DB000E4913438B6000F0A3
:1041B00021F802460B4B9B681B0903F00F030A49C9
:1041C000CB5C22FA03F3094A1360094B1B681846BB
:1041D000FDF75AFA002318461037BD4680BD00BFD0
:1041E000003C0240003802406069010800000020E5
:1041F000040000202DE9B04F90B000AF00237B6396
:104200000023FB6300233B630023BB63594B9B6884
:1042100003F00C03082B0DD0082B00F2A180002B1B
:1042200002D0042B03D09BE0534BBB639BE0534B6A
:10423000BB6398E04F4B5B6803F03F037B634D4BE0
:104240005B6803F48003002B28D04A4B5B689B0912
:1042500000223B627A623B6AC3F308000021474BAD
:1042600003FB01F2002300FB03F31344434AA0FBCA
:104270000212FA620A46BA62FA6A1344FB627B6B64
:104280000022BB61FA61D7E90623D7E90A01FBF7EF
:10429000F7FF02460B461346FB6353E0354B5B6862
:1042A0009B0900223B617A613B69C3F3080A4FF026
:1042B000000B52465B464FF000004FF000015901E1
:1042C00041EAD261500102460B46B2EB0A0863EBA9
:1042D0000B094FF000024FF000034FEA891343EA45
:1042E00098634FEA8812B2EB080463EB09054FF0BC
:1042F00000024FF00003EB0043EA5473E20014465F
:104300001D4614EB0A033B6045EB0B037B604FF04B
:1043100000024FF00003D7E9004529468B022146F1
:1043200043EA915321468A02104619467B6B0022CC
:10433000BB60FA60D7E90223FBF7A2FF02460B46F7
:104340001346FB630B4B5B681B0C03F00303013349
:104350005B003B63FA6B3B6BB2FBF3F3BB6302E0C6
:10436000054BBB6300BFBB6B18464037BD46BDE87D
:10437000B08F00BF003802400024F40040787D0177
:1043800080B400AF034B1B681846BD465DF8047B44
:10439000704700BF0000002080B500AFFFF7F0FFBE
:1043A0000246054B9B689B0A03F007030349CB5C5D
:1043B00022FA03F3184680BD0038024070690108F4
:1043C00080B500AFFFF7DCFF0246054B9B685B0B37
:1043D00003F007030349CB5C22FA03F3184680BDC0
:1043E000003802407069010880B586B000AF78607F
:1043F00000237B6100233B617B681B6803F00103A2
:10440000002B05D17B681B6803F00403002B35D01B
:10441000624B00221A60FDF77BF9786108E0FDF736
:1044200077F902467B69D31A022B01D90323B0E046
:104430005B4B1B6803F00063002BF0D17B685B686B
:104440009A017B689B681B0755491343C1F8843068
:10445000524B01221A60FDF75BF9786108E0FDF725
:1044600057F902467B69D31A022B01D9032390E046
:104470004B4B1B6803F00063002BF0D07B681B687C
:1044800003F00203002B00F083800023FB60444B09
:104490001B6C434A43F080531364414B1B6C03F085
:1044A0008053FB60FB683F4B1B683E4A43F48073BC
:1044B0001360FDF72DF9786108E0FDF729F9024650
:1044C0007B69D31A022B01D9032362E0354B1B68A9
:1044D00003F48073002BF0D0314B1B6F03F4407357
:1044E0003B613B69002B2FD07B68DB6803F4407392
:1044F0003A699A4228D02A4B1B6F23F440733B61E0
:10450000294B01221A60284B00221A60244A3B6979
:104510001367234B1B6F03F00103012B14D1FDF72D
:10452000F7F878610AE0FDF7F3F802467B69D31AE1
:1045300041F28832934201D903232AE0184B1B6FC2
:1045400003F00203002BEED07B68DB6803F44073BA
:10455000B3F5407F0DD1124B9B6823F4F8127B68B2
:10456000DB6823F0704323F440730D4913438B60E1
:1045700005E00B4B9B680A4A23F4F8139360084B41
:104580001A6F7B68DB68C3F30B03054913430B67A2
:10459000002318461837BD4680BD00BF680047425B
:1045A0000038024000700040400E474280B584B0A1
:1045B00000AF78600123FB737B68002B01D10123DE
:1045C00073E07B685B7FDBB2002B05D17B68002248
:1045D0001A777868FCF756FB7B6802225A777B686B
:1045E0001B68DB6803F01003102B55D07B681B6839
:1045F000CA225A627B681B6853225A62786800F0AC
:104600007FF80346FB73FB7B002B2CD17B681B6878
:104610009B687A68126823F4E00323F040039360F8
:104620007B681B6899687B685A687B681B691A43BA
:104630007B685B691A437B681B680A439A607B68E6
:104640001B687A68D2681A617B681B6819697B6885
:104650009B681A047B681B680A431A61786800F03B
:1046600086F80346FB73FB7B002B10D17B681B682D
:104670001A6C7B681B6822F480221A647B681B68B2
:10468000196C7B689A697B681B680A431A647B68AB
:104690001B68FF225A6201E00023FB73FB7B002BA7
:1046A00002D17B6801225A77FB7B18461037BD4642
:1046B00080BD000080B584B000AF78600023FB604F
:1046C0007B681B680D4ADA60FDF722F8F86009E0A4
:1046D000FDF71EF80246FB68D31AB3F57A7F01D9BD
:1046E000032307E07B681B68DB6803F02003002BD3
:1046F000EED0002318461037BD4680BD5F7F010015
:1047000080B584B000AF78600023BB600023FB73EA
:104710007B681B68DB6803F04003002B22D17B68B9
:104720001B68DA687B681B6842F08002DA60FCF77D
:10473000EFFFB8600CE0FCF7EBFF0246BB68D31A52
:10474000B3F57A7F04D97B6804225A770123FB737F
:104750007B681B68DB6803F04003002B02D1FB7B06
:10476000012BE8D1FB7B18461037BD4680BD80B5D4
:1047700084B000AF78600023FB737B681B68DA6845
:104780007B681B6822F08002DA607B681B689B688C
:1047900003F02003002B0AD17868FFF78BFF034654
:1047A000002B04D07B6804225A770123FB73FB7B28
:1047B00018461037BD4680BD80B582B000AF786026
:1047C0007B68002B01D101237BE07B685B6A002BB7
:1047D00008D17B685B68B3F5827F09D07B680022D3
:1047E000DA6105E07B6800221A617B6800225A6169
:1047F0007B6800229A627B6893F85130DBB2002B11
:1048000006D17B68002283F850207868FCF79AFA7A
:104810007B68022283F851207B681B681A687B68DA
:104820001B6822F040021A607B685B6803F48272A6
:104830007B689B6803F404431A437B68DB6803F4DA
:1048400000631A437B681B6903F002031A437B6809
:104850005B6903F001031A437B689B6903F40073EF
:104860001A437B68DB6903F038031A437B681B6AD1
:1048700003F0800342EA03017B689B6A03F4005261
:104880007B681B680A431A607B689B691B0C03F0FA
:1048900004017B685B6A03F010027B681B680A43B3
:1048A0005A607B681B68DA697B681B6822F40062C7
:1048B000DA617B6800225A657B68012283F8512007
:1048C000002318460837BD4680BD80B582B000AFD2
:1048D00078607B68002B01D1012342E07B6893F86C
:1048E0004130DBB2002B06D17B68002283F84020E8
:1048F0007868FCF78FFC7B68242283F841207B6872
:104900001B68DA687B681B6822F40052DA607868FA
:1049100000F086FC7B681B681A697B681B6822F4C0
:1049200090421A617B681B685A697B681B6822F099
:104930002A025A617B681B68DA687B681B6842F44C
:104940000052DA607B6800225A647B68202283F878
:1049500041207B68202283F842207B6800225A6332
:10496000002318460837BD4680BD000080B5BAB0A8
:1049700000AF78607B681B681B68C7F8E4307B6811
:104980001B68DB68C7F8E0307B681B685B69C7F8A9
:10499000DC300023C7F8D8300023C7F8D430D7F86C
:1049A000E43003F00F03C7F8D830D7F8D830002B25
:1049B0000FD1D7F8E43003F02003002B09D0D7F84B
:1049C000E03003F02003002B03D0786800F069FB8F
:1049D0005BE2D7F8D830002B00F0DE80D7F8DC306F
:1049E00003F00103002B06D1D7F8E03003F49073F5
:1049F000002B00F0D180D7F8E43003F00103002B46
:104A00000BD0D7F8E03003F48073002B05D07B681F
:104A10005B6C43F001027B685A64D7F8E43003F022
:104A20000403002B0BD0D7F8DC3003F00103002B7C
:104A300005D07B685B6C43F002027B685A64D7F850
:104A4000E43003F00203002B0BD0D7F8DC3003F086
:104A50000103002B05D07B685B6C43F004027B688C
:104A60005A64D7F8E43003F00803002B11D0D7F8CC
:104A7000E03003F02003002B05D1D7F8DC3003F041
:104A80000103002B05D07B685B6C43F008027B6858
:104A90005A647B685B6C002B00F0F281D7F8E4303D
:104AA00003F02003002B08D0D7F8E03003F02003F8
:104AB000002B02D0786800F0F4FA7B681B685B6911
:104AC00003F04003402B0CBF01230023DBB2C7F8E7
:104AD000D4307B685B6C03F00803002B03D1D7F85C
:104AE000D430002B4FD0786800F0FCF97B681B684D
:104AF0005B6903F04003402B41D17B681B68143392
:104B0000C7F89C30D7F89C3053E8003FC7F898307E
:104B1000D7F8983023F04003C7F8D0307B681B6883
:104B20001433D7F8D020C7F8A820C7F8A430D7F896
:104B3000A410D7F8A82041E80023C7F8A030D7F880
:104B4000A030002BD9D17B68DB6B002B13D07B68A6
:104B5000DB6B7E4A1A657B68DB6B1846FDF7D9FA7A
:104B60000346002B16D07B68DB6B1B6D7A68D26B1B
:104B7000104698470EE0786800F09EF90AE07868E1
:104B800000F09AF906E0786800F096F97B68002258
:104B90005A6475E100BF73E17B681B6B012B40F029
:104BA0004F81D7F8E43003F01003002B00F0488168
:104BB000D7F8E03003F01003002B00F04181002310
:104BC000BB607B681B681B68BB607B681B685B689D
:104BD000BB60BB687B681B685B6903F04003402BCC
:104BE00040F0B6807B68DB6B1B685B68A7F8BE3063
:104BF000B7F8BE30002B00F045817B689B8DB7F87D
:104C0000BE209A4280F03E817B68B7F8BE20DA85EC
:104C10007B68DB6BDB69B3F5807F00F088807B68A5
:104C20001B680C33C7F88830D7F8883053E8003F4A
:104C3000C7F88430D7F8843023F48073C7F8B830CD
:104C40007B681B680C33D7F8B820C7F89420C7F8E6
:104C50009030D7F89010D7F8942041E80023C7F897
:104C60008C30D7F88C30002BD9D17B681B6814337B
:104C70007B677B6F53E8003F3B673B6F23F001038B
:104C8000C7F8B4307B681B681433D7F8B420C7F872
:104C90008020FB67F96FD7F8802041E80023BB67CD
:104CA000BB6F002BE1D17B681B6814333B663B6E06
:104CB00053E8003FFB65FB6D23F04003C7F8B030BD
:104CC0007B681B681433D7F8B020FA66BB66B96EF0
:104CD000FA6E41E800237B667B6E002BE3D17B6894
:104CE000202283F842207B6800221A637B681B68BD
:104CF0000C33FB64FB6C53E8003FBB64BB6C23F0DC
:104D00001003C7F8AC307B681B680C33D7F8AC20B5
:104D1000BA657B65796DBA6D41E800233B653B6DF3
:104D2000002BE3D17B68DB6B1846FDF782F97B68CB
:104D300002225A637B689A8D7B68DB8D9BB2D31A03
:104D40009BB21946786800F0C1F89BE0AB4F0008B1
:104D50007B689A8D7B68DB8D9BB2D31AA7F8CE3027
:104D60007B68DB8D9BB2002B00F08E80B7F8CE30D5
:104D7000002B00F089807B681B680C33BB63BB6B26
:104D800053E8003F7B637B6B23F49073C7F8C83014
:104D90007B681B680C33D7F8C8207A643B64396C95
:104DA0007A6C41E80023FB63FB6B002BE3D17B684B
:104DB0001B6814337B627B6A53E8003F3B623B6AAB
:104DC00023F00103C7F8C4307B681B681433D7F89D
:104DD000C4203A63FB62F96A3A6B41E80023BB6284
:104DE000BB6A002BE3D17B68202283F842207B68DA
:104DF00000221A637B681B680C333B613B6953E8F4
:104E0000003FFB60FB6823F01003C7F8C0307B68ED
:104E10001B680C33D7F8C020FA61BB61B969FA6925
:104E200041E800237B617B69002BE3D17B68022290
:104E30005A63B7F8CE301946786800F047F823E097
:104E4000D7F8E43003F08003002B09D0D7F8E03026
:104E500003F08003002B03D0786800F0BAF814E068
:104E6000D7F8E43003F04003002B0ED0D7F8E03041
:104E700003F04003002B08D0786800F0FAF804E053
:104E800000BF02E000BF00E000BFE837BD4680BDC4
:104E900080B483B000AF786000BF0C37BD465DF8CA
:104EA000047B704780B483B000AF786000BF0C37DC
:104EB000BD465DF8047B704780B483B000AF786076
:104EC00000BF0C37BD465DF8047B704780B483B0EB
:104ED00000AF78600B467B8000BF0C37BD465DF8A5
:104EE000047B704780B495B000AF78607B681B6826
:104EF0000C337B637B6B53E8003F3B633B6B23F4DA
:104F00009073FB647B681B680C33FA6C3A64FB6338
:104F1000F96B3A6C41E80023BB63BB6B002BE5D116
:104F20007B681B6814333B623B6A53E8003FFB61BC
:104F3000FB6923F00103BB647B681B681433BA6C04
:104F4000FA62BB62B96AFA6A41E800237B627B6A53
:104F5000002BE5D17B681B6B012B19D17B681B688B
:104F60000C33FB60FB6853E8003FBB60BB6823F079
:104F700010037B647B681B680C337A6CBA617B61BD
:104F80007969BA6941E800233B613B69002BE5D1AF
:104F90007B68202283F842207B6800221A6300BFCE
:104FA0005437BD465DF8047B704780B584B000AFD0
:104FB00078607B689B6BFB60FB680022DA85FB688E
:104FC0000022DA84F868FFF777FF00BF1037BD468C
:104FD00080BD80B485B000AF78607B6893F84130C5
:104FE000DBB2212B3ED17B689B68B3F5805F14D187
:104FF0007B681B69002B10D17B681B6AFB60FB6818
:105000001B881A467B681B68C2F308025A607B68DB
:105010001B6A9A1C7B681A6208E07B681B6A591C31
:105020007A6811621A787B681B685A607B68DB8C2F
:105030009BB2013B9BB27A681946D184002B0FD1F9
:105040007B681B68DA687B681B6822F08002DA6084
:105050007B681B68DA687B681B6842F04002DA6094
:10506000002300E0022318461437BD465DF8047B98
:10507000704780B582B000AF78607B681B68DA68E3
:105080007B681B6822F04002DA607B68202283F88C
:1050900041207868FFF7FCFE002318460837BD461C
:1050A00080BD80B58CB000AF78607B6893F84230EB
:1050B000DBB2222B40F0AE807B689B68B3F5805F4B
:1050C00017D17B681B69002B13D10023FB627B681F
:1050D0009B6ABB627B681B685B689BB2C3F3080377
:1050E0009AB2BB6A1A807B689B6A9A1C7B689A6238
:1050F00026E07B689B6AFB620023BB627B689B683F
:10510000B3F5805F07D07B689B68002B0AD17B6872
:105110001B69002B06D17B681B685B68DAB2FB6AEF
:105120001A7008E07B681B685B68DBB203F07F03E2
:10513000DAB2FB6A1A707B689B6A5A1C7B689A62B7
:105140007B68DB8D9BB2013B9BB27A681946D185A7
:10515000002B5DD17B681B68DA687B681B6822F0D6
:105160002002DA607B681B68DA687B681B6822F4BF
:105170008072DA607B681B685A697B681B6822F062
:1051800001025A617B68202283F842207B6800225A
:105190005A637B681B6B012B35D17B6800221A6335
:1051A0007B681B680C337B617B6953E8003F3B6184
:1051B0003B6923F010037B627B681B680C337A6ABF
:1051C0003A62FB61F9693A6A41E80023BB61BB6955
:1051D000002BE5D17B681B681B6803F01003102BC4
:1051E0000AD10023FB607B681B681B68FB607B683F
:1051F0001B685B68FB60FB687B689B8D1946786861
:10520000FFF764FE02E07868FFF74CFE002302E03F
:10521000002300E0022318463037BD4680BD000061
:105220002DE9B04FC0B000AFC7F8F400D7F8F430A4
:105230001B681B6923F44050D7F8F430D968D7F8BD
:10524000F4301A6840EA01031361D7F8F4309A6821
:10525000D7F8F4301B691A43D7F8F4305B691A4366
:10526000D7F8F430DB691343C7F8F830D7F8F430D7
:105270001B68DB6823F4164121F00C01D7F8F430E9
:105280001A68D7F8F8300B43D360D7F8F4301B68AE
:105290005B6923F44070D7F8F4309969D7F8F4309B
:1052A0001A6840EA01035361D7F8F4301A688F4B4B
:1052B0009A4205D0D7F8F4301A688D4B9A4204D13F
:1052C000FFF77EF8C7F8FC0003E0FFF765F8C7F8C2
:1052D000FC00D7F8F430DB69B3F5004F40F00C81E7
:1052E000D7F8FC300022C7F8E830C7F8EC20D7E93F
:1052F0003A4522462B469118B9655B41FB65D7E9D3
:105300001623214612EB0108294643EB01094FF011
:1053100000024FF000034FEAC90343EA58734FEA13
:10532000C80290469946234618EB0303C7F8E030BD
:105330002B4649EB0303C7F8E430D7F8F4305B6839
:105340000022C7F8D830C7F8DC20D7E936120B4660
:10535000DB183B65134642EB03037B65D7E9142357
:10536000D7E93801FAF78CFF02460B46614BA3FBE5
:1053700002235B091C01D7F8FC300022C7F8D030AB
:10538000C7F8D420D7E9348942464B469118B9640E
:105390005B41FB64D7E91223414612EB010A4946FF
:1053A00043EB010B4FF000024FF000034FEACB0339
:1053B00043EA5A734FEACA0292469B4643461AEBA7
:1053C0000303C7F8C8304B464BEB0303C7F8CC3098
:1053D000D7F8F4305B680022C7F8C030C7F8C420A3
:1053E000D7E930120B46DB183B64134642EB03034C
:1053F0007B64D7E91023D7E93201FAF741FF02466F
:105400000B4611463B4BA3FB01235B09642202FBC5
:1054100003F3CB1ADB0003F13202364BA3FB02236A
:105420005B095B0003F4F8731C44D7F8FC300022DE
:10543000C7F8B830C7F8BC20D7E92E8942464B469A
:105440009118B9635B41FB63D7E90E2341465118BC
:10545000396349464B417B634FF000024FF0000334
:10546000D7E90CAB5946CB00514643EA517351463C
:10547000CA0010461946034642469B18C7F8B0308A
:105480004B460A4642EB0303C7F8B430D7F8F43072
:105490005B680022C7F8A830C7F8AC20D7E92A1209
:1054A0000B46DB18BB62134642EB0303FB62D7E9F2
:1054B0000A23D7E92C01FAF7E3FE02460B460D4B0F
:1054C000A3FB02135B09642101FB03F3D31ADB0086
:1054D0003233084AA2FB03235B0903F00702D7F823
:1054E000F4301B6822449A6006E100BF00100140BE
:1054F000001401401F85EB51D7F8FC300022C7F89B
:10550000A030C7F8A420D7E9288942464B46911815
:1055100039625B417B62D7E908234146541849460A
:1055200043EB01054FF000024FF00003EB0043EAAC
:105530005473E20014461D464346E318C7F89830FA
:105540004B4645EB0303C7F89C30D7F8F4305B6853
:105550000022C7F89030C7F894204FF000024FF0B7
:105560000003D7E9244529468B00214643EA91737D
:1055700021468A00D7E92601FAF782FE02460B4649
:10558000604BA3FB02235B091C01D7F8FC3000220F
:10559000C7F88830C7F88C20D7E9228942464B46A5
:1055A0009118B9615B41FB61D7E906234146511867
:1055B000396149464B417B614FF000024FF00003D7
:1055C000D7E904AB5946CB00514643EA51735146E3
:1055D000CA0010461946034642469B18C7F8803059
:1055E0004B460A4642EB0303C7F88430D7F8F43041
:1055F0005B680022BB67FA674FF000024FF00003C0
:10560000D7E91E8949468B00414643EA91734146DA
:105610008A00D7E92001FAF733FE02460B4611460D
:10562000384BA3FB01235B09642202FB03F3CB1A73
:105630001B013233334AA2FB03235B0903F0F0035F
:105640001C44D7F8FC3000223B677A67D7E91C89F5
:1056500042464B469118B9605B41FB60D7E9022393
:1056600041465118396049464B417B604FF000027A
:105670004FF00003D7E900AB5946CB00514643EA4F
:1056800051735146CA0010461946034642469B18BC
:10569000BB664B460A4642EB0303FB66D7F8F43081
:1056A0005B6800223B667A664FF000024FF0000311
:1056B000D7E9188949468B00414643EA9173414630
:1056C0008A00D7E91A01FAF7DBFD02460B460D4BBB
:1056D000A3FB02135B09642101FB03F3D31A1B0133
:1056E0003233084AA2FB03235B0903F00F02D7F809
:1056F000F4301B6822449A6000BF07F58077BD46EE
:10570000BDE8B08F1F85EB5180B584B004AF01F0C8
:1057100050F8124B00221A60114B00221A60114BF4
:1057200000221A60104B0293104B01930023009348
:105730000C4B0B4A09490E4801F028FD0C4801F0BA
:10574000E9FE0B4801F0F6FE0A49094802F008F8A4
:10575000074809F00FFB00BFBD4680BDA80200202E
:10576000AC020020B00200204D290108855A000833
:105770006C020020C957000880B582B000AF786085
:10578000FBF7C6FF0246084B1B68D31A632B07D9E9
:10579000FBF7BEFF0346044A1360786800F0C6FAC0
:1057A00000BF0837BD4680BD6802002080B500AF4D
:1057B000044800F047F908F0CDF90248FFF7DCFF94
:1057C00000BF80BD6C02002080B483B000AF786061
:1057D00000BF0C37BD465DF8047B704780B584B0D0
:1057E00000AF78600023FB73404B414A1A600023EE
:1057F0003B7280237B72E123BB720023FB72002388
:105800003B7301237B73394A07F108035360374B1D
:105810004FF400029A60354B364ADA60334B364A11
:105820001A61324B4FF4C0625A613048FCF794FC65
:105830000346FB733822002130480DF0C2FA2F4B8B
:1058400021221A602D4B4FF440025A612B4B00224B
:105850001A612B4801F062FB7B68062283F8342032
:10586000224B5B681A787B6883F82E201F4B5B689D
:105870005A787B6883F82F201C4B5B689A787B688A
:1058800083F83020194B5B68DA787B6883F8312025
:10589000164B5B681A797B6883F83220134B5B6880
:1058A0005A797B6883F833207B6840F2DC529A8512
:1058B0007B6893F8353043F00A03DAB27B6883F8EB
:1058C000352010491048FBF75CFD0F48FBF78BFDB6
:1058D000FB7B002B03D1786800F028FA01E0FBF78E
:1058E000A5F900BF1037BD4680BD00BF804D002028
:1058F00000800240E04C0020404C0020304E002050
:10590000786901080C000020684E002080B592B034
:1059100000AF7860396000237B6400233B64002380
:1059200087F83F3007F10C033022002118460DF0B4
:1059300048FA07F10C033022002118460DF041FA15
:105940003B683B6445E07B6C032B02D96FF00B0393
:1059500055E03B6C59687A6C13465B0013449B001E
:1059600048333B443C3B19603B6C5B8919467A6C7D
:1059700013465B0013449B0048333B44383B19609B
:105980007B6C002B11D07B6C5A1E07F10C00796CDC
:105990000B465B000B449B00C11813465B0013448D
:1059A0009B0048333B44343B19603B6C1B68002B25
:1059B00009D17A6C13465B0013449B0048333B4487
:1059C000343B00221A607B6C01337B643B6C1B68A8
:1059D0003B643B6C002BB6D13B681B891A460A4BD3
:1059E0005A60094A07F10C039360074A3B68536306
:1059F000142205490548FCF7E5FC97F93F301846A5
:105A00004837BD4680BD00BF304E0020804D00208D
:105A100080B584B000AF78600023FB60074B1B7833
:105A2000002B05D107F10C0319460548FCF75EFD74
:105A3000FB6818461037BD4680BD00BF3C4C0020B7
:105A4000804D002080B584B000AF78600023FB60FB
:105A50007868FFF7DDFFF860FB68002B0AD07B68F1
:105A60001B697968F86898470346002B02D0F868EC
:105A700002F0F6F9FB68002BEAD100BF00BF103737
:105A8000BD4680BD80B582B000AF78607B68002BDA
:105A900006D10E4B4FF4B5720D490E480DF02CF99E
:105AA0007B68732283F836207B68742283F8372062
:105AB0007B68094A5A617B68084A9A617868FFF7EF
:105AC0008DFE002318460837BD4680BD243B0108E3
:105AD000403B0108503B0108950C01080D59000896
